:100000000C943E000C9448000C9448000C9448005A
:100010000C9448000C9448000C9448000C94480040
:100020000C9448000C9448000C9448000C94480030
:100030000C9448000C9448000C9448000C94480020
:100040000C9448000C9448000C9448000C94480010
:100050000C9448000C9448000C9448000C94480000
:100060000C9448000C9448000C9448000C944800F0
:100070000C9448000C9448000C94480011241FBEB6
:10008000CFEFD0E1DEBFCDBF0E9475000C9483009E
:100090000C94000084E18AB91BB880E887B92FEF7F
:1000A00083ED90E3215080409040E1F700C00000D4
:1000B000E0E8F0E0808182688083E1E8F0E0808120
:1000C00089618083EFE6F0E08081826080838FE346
:1000D00091E090938700809386008FE190E0909369
:1000E000890080938800789408950E944A00479A76
:1000F0002FEF83ED90E3215080409040E1F700C066
:0A01000000004798F4CFF894FFCFF9
:00000001FF
