:100000000C943E000C9450000C94F3000C9450009F
:100010000C9450000C9450000C9450000C94500020
:100020000C9450000C9450000C9450000C94500010
:100030000C9409010C9450000C9450000C94500046
:100040000C9450000C9450000C9450000C945000F0
:100050000C9450000C9450000C9450000C945000E0
:100060000C9450000C9450000C9450000C945000D0
:100070000C9450000C9450000C94500011241FBE9E
:10008000CFEFD0E1DEBFCDBF21E0A0E0B1E001C005
:100090001D92A830B207E1F70E9492000C94200153
:1000A0000C94000084E18AB91BB880E887B92FEF6F
:1000B00083ED90E3215080409040E1F700C00000C4
:1000C000E0E8F0E0808182688083E1E8F0E0808110
:1000D00089618083EFE6F0E08081826080838FE336
:1000E00091E090938700809386008FE190E0909359
:1000F0008900809388007894EAE7F0E080818F7728
:100100008083E4E9F0E0808186688083E5E9F0E0BF
:100110008081866E808380B780BF10920701109225
:10012000060108950E945200A0E8B0E0E1E8F0E086
:10013000FF24F3940F2EFFE6CF2ED12CF02D06E8EE
:1001400010E06FE371E048E850E00F2EFFE1AF2EC2
:10015000B12CF02D4E9B38C0109203011C921082DE
:100160005A98479A2FEF80E792E0215080409040C4
:10017000E1F700C000005C9ACFEFD0E722E0C15069
:10018000D0402040E1F700C000005C988FEF93ED75
:10019000C0E381509040C040E1F700C000001092E1
:1001A0000701109206018C9182688C93808189618D
:1001B0008083E601888182608883E801798368838F
:1001C000EA01B982A882C6CF809106019091070109
:1001D000803293400CF4BECF4E99BCCF1C9210825B
:1001E000F0920301B7CF1F920F920FB60F92112416
:1001F0008F9380910301813031F45A9A8AE08A9575
:10020000F1F700C05A988F910F900FBE0F901F907A
:1002100018951F920F920FB60F9211248F939F93F0
:1002200080910601909107010196909307018093B8
:1002300006019F918F910F900FBE0F901F90189500
:04024000F894FFCF60
:00000001FF
