S0120000436F6D70617261746F722E73726563FA
S11300000C943E000C9450000C94DE000C945000B0
S11300100C9450000C9450000C9450000C9450001C
S11300200C9450000C9450000C9450000C9450000C
S11300300C9402010C9450000C9450000C94500049
S11300400C9450000C9450000C9450000C945000EC
S11300500C9450000C9450000C9450000C945000DC
S11300600C9450000C9450000C9450000C945000CC
S11300700C9450000C9450000C94500011241FBE9A
S1130080CFEFD0E1DEBFCDBF21E0A0E0B1E001C001
S11300901D92A730B207E1F70E9492000C94190157
S11300A00C94000084E18AB91BB880E887B92FEF6B
S11300B083ED90E3215080409040E1F700C00000C0
S11300C0E0E8F0E08081806C8083E1E8F0E080810A
S11300D081618083EFE6F0E080818260808380EA42
S11300E090E0909387008093860080E990E090935D
S11300F08900809388007894EAE7F0E080818F7724
S11301008083E4E9F0E0808186688083E5E9F0E0BB
S11301108081866E808380B780BF10920601109222
S1130120050108950E945200C0E8D0E0A1E8B0E0C3
S11301300F2EFFE6EF2EF12CF02D66E870E040EA7A
S113014050E028E830E00F2EF0E9CF2ED12CF02D2E
S11301504E9BFECF1092060110920501479A5A98C1
S11301600FEF10E782E0015010408040E1F700C03B
S113017000005C9A9FEFE0E7F2E09150E040F0402D
S1130180E1F700C000005C980FEF13ED80E301502D
S113019010408040E1F700C000001881106C188303
S11301A01C9111611C93F701108112601083FB01F3
S11301B051834083F901D182C082CACF1F920F922A
S11301C00FB60F9211242F938F939F938091050163
S11301D090910601883E93406CF04E990BC01092AA
S11301E08000109281005A9A85E18A95F1F7000007
S11301F05A98479A9F918F912F910F900FBE0F900D
S11302001F9018951F920F920FB60F9211248F937F
S11302109F938091050190910601019690930601A8
S1130220809305019F918F910F900FBE0F901F90A7
S10902301895F894FFCFBD
S9030000FC
